:10000000830100308A0004282030840026300D202F
:100010008301752F04068001840A0406031D0A2843
:020020000034AA
:100D26008301A3000430A200FA30A400A40B992E7C
:100D3600A20B972EA30B952E080040300727A20181
:100D4600403022020318AE2E0030E526A20A4030BB
:100D56002202031CA72E8301080083120313A3009B
:100D660041302302031CB92E0030C12E2308403E19
:100D760007272927A20080300727220883010800B9
:100D8600C23007270030E526CB3007270130E5269D
:100D9600C43007270230E526C53007270330E5268D
:100DA600C63007270430E526CF3007270530E5266D
:100DB600C83007270630E526CD3007270730E52659
:100DC6008301080083120313A300F039F000F00E2C
:100DD6000F30F0057008303887000430A400A40BEB
:100DE600F22E87120430A400A40BF72E23080F3925
:100DF600303887000430A400A40BFF2E8712A030E1
:100E0600A400A40B042F080083120313A400F039D6
:100E1600F000F00E0F30F00570082038870004301F
:100E2600A500A50B142F87120430A500A50B192FBA
:100E360024080F39203887000430A500A50B212F80
:100E46008712A030A500A50B262F080083120313D6
:100E5600A4010F308316870040308312870060306C
:100E660087000430A500A50B362F403087000430DC
:100E7600A500A50B3C2F603087000430A500A50B0C
:100E8600422F403087000430A500A50B482F503074
:100E96008700703087000430A500A50B502F070887
:100EA6000F39F000F00EF030F0057008A400503055
:100EB60087000430A500A50B5E2F70308700043034
:100EC600A500A50B642F07080F39A4040430A5005C
:100ED600A50B6B2F4030870087018316870183128D
:100EE6002408080083120313A00183168701FE302D
:100EF600850083128701013093263330072732306D
:100F060007272830072701300727013093260130AD
:100F160093260230072701309326013093260630A8
:100F260007270C3007274130E5266130E52670306B
:100F3600E5262030E5262E30E526A026C32690306D
:100F460007272D30E5262D30E526A001B02F2008F5
:100F5600403807272008E526A00A403083120313ED
:100F66002002031CAA2FA001403020020318E12F03
:100F76002008B026A10020060319DD2F9030072790
:100F86002108F039F000F00E0F30F0057008303E01
:100F9600E52621080F39303EE5262008F039F00015
:100FA600F00E0F30F0057008303EE52620080F39A8
:100FB600303EE52683120313A00AB72FA026013080
:100FC60083120313850064309326643093266430BD
:100FD6009326643093268D3007272B30E52685012E
:100FE60064309326643093266430932664309326C7
:0A0FF6008D3007272A30E526E22F90
:02400E00723FFF
:00000001FF
